:03000000020003F8
:0C000300787FE4F6D8FD75811802004AF1
:0A0272003F065B4F666D7D077F6F4E
:10024A00080F0000000000000000020D0000020874
:08025A000000010A0001170079
:1001FA0075803F75900FE590640F603F1201A11260
:0A020A00008FE50A24F6500280314F
:100214000517E517B40105850A0F801C851718E535
:1002240018D394004012740E2518F8E6FF740F25B5
:1002340018F8A607151880E7850A0F750A10120129
:0102440018A1
:0502450012011880B356
:08027C007F6C7E91DEFEDFFCC9
:010284002257
:0E02630000007F017ED87D23DDFEDEFCDFFA89
:01027100226A
:1001A100E590640F600312027CE590640F6047E400
:1001B100F50AAF90EF24F5601024FE60111460136E
:1001C10024077012750A01800D750A028008750AEC
:1001D100038003750A047590F0AF90EF24906010CE
:1001E10024C0600824E0700E740480067408800244
:0901F100740C250AF50A020263F0
:10008F00E50A14B4100040030201179000A875F0A0
:10009F0003A4C58325F0C583730200D80200DC02D8
:1000AF0000E00200E40200E80200EC0200F00200AF
:1000BF00F40200F80200FC02010002010402010830
:1000CF0002010C020110020114750A6322750A0164
:1000DF0022750A0422750A0722E4F50A22750A021C
:1000EF0022750A0522750A0822750A6522750A0308
:1000FF0022750A0622750A0922750A6122750A6D90
:09010F0022750A4D22750A6422D2
:10011800E4FFFEC3EF95177480F86E98507AEE707E
:1001280053EFB40800504D900136F82828730201A7
:100138004E02015202015602015A02015E02016694
:1001480002016E020176D2A4800ED2A48012D2A43B
:100158008016D2A4801AC2A4D2A3D2A28016C2A4A6
:10016800D2A3C2A2800EC2A4C2A3D2A28006C2A4F5
:10017800C2A3C2A2740F2FF8E690027293F5807D95
:100188000A7C00ED1DAA0470011C4A70F6E4F58093
:080198000FBF00010E02011B64
:0101A000223C
:010285002256
:10000F000201FAE493A3F8E493A34003F68001F20C
:10001F0008DFF48029E493A3F85407240CC8C333F2
:10002F00C4540F4420C8834004F456800146F6DFC1
:10003F00E4800B010204081020408090024AE47E05
:10004F00019360BCA3FF543F30E509541FFEE493B6
:10005F00A360010ECF54C025E060A840B8E493A37D
:10006F00FAE493A3F8E493A3C8C582C8CAC583CAA8
:10007F00F0A3C8C582C8CAC583CADFE9DEE780BE60
:01026200009B
:00000001FF
