:0300000002028079
:0C028000787FE4F6D8FD7581230202C7E8
:0A058D003F065B4F666D7D077F6F30
:10056B00041200000000040800000000010D00014F
:02057B001E0060
:1000030012054D75900FE590640F700302015D12A8
:10001300041E12030CE50D24F6501C24BD606B2452
:10002300EC604724FE60411460701470030200B159
:0700330024F8604602015DA4
:10003A00051EE51EB40105850D16801C851E1FE5EB
:10004A001FD3940040127415251FF8E6FF74162575
:10005A001FF8A607151F80E7850D16750D100201FA
:01006A005A3B
:10006B00803E12050C8F118E108D0F8C0E750C614E
:10007B00802E12050C8F118E108D0F8C0E750C6D42
:10008B00801E12050C8F118E108D0F8C0E750C4D62
:10009B00800E12050C8F118E108D0F8C0E750C644B
:1000AB0012054D02015DAF11AE10AD0FAC0EEC4D54
:1000BB004E4F70040002015D12050C8F158E148DCE
:1000CB00138C12E50C24B3604124E9605224F760D1
:1000DB001E240C7065E5112515F50BE5103514F58F
:1000EB000AE50F3513F509E50E3512F508804BC3FC
:1000FB00E5119515F50BE5109514F50AE50F95131C
:10010B00F509E50E9512F5088030AF15AE14AD1359
:10011B00AC12AB11AA10A90FA80E1201638013AB7E
:10012B0015AA14A913A812AF11AE10AD0FAC0E1275
:10013B0004C88F0B8E0A8D098C08120477751E0765
:10014B00E4F51E7416251EF8E66004051E80F412F5
:08015B00039512039502000652
:080597007F6C7E91DEFEDFFCAB
:01059F002239
:0E057E0000007F017ED87D23DDFEDEFCDFFA6B
:01058C00224C
:10041E00E590640F6003120597E590640F6047E462
:10042E00F50DAF90EF24F5601024FE6011146013EB
:10043E0024077012750D01800D750D028008750D63
:10044E00038003750D047590F0AF90EF249060104B
:10045E0024C0600824E0700E7404800674088002C4
:09046E00740C250DF50D02057E4C
:10030C00E50D14B41000400302039490032575F01E
:10031C0003A4C58325F0C583730203550203590258
:10032C00035D02036102036502036902036D0203AC
:10033C007102037502037902037D020381020385B6
:10034C0002038902038D020391750D6322750D0161
:10035C0022750D0422750D0722E4F50D22750D0290
:10036C0022750D0522750D0822750D6522750D037C
:10037C0022750D0622750D0922750D6122750D6D04
:09038C0022750D4D22750D64224D
:10039500E4FFFEC3EF951E7480F86E98507AEE70F8
:1003A50053EFB40800504D9003B3F82828730203A7
:1003B500CB0203CF0203D30203D70203DB0203E31D
:1003C5000203EB0203F3D2A4800ED2A48012D2A4BE
:1003D5008016D2A4801AC2A4D2A3D2A28016C2A427
:1003E500D2A3C2A2800EC2A4C2A3D2A28006C2A476
:1003F500C2A3C2A274162FF8E690058D93F5807DF1
:100405000A7C00ED1DAA0470011C4A70F6E4F58013
:080415000FBF00010E02039865
:01041D0022BC
:10050C00E4FB7A01F523F522F521F52074162BF87E
:10051C00E68AF0A4FFAEF0E4FCFDE5232FF523E51D
:10052C00223EF522ED3521F521EC3520F520EA753A
:10053C00F00AA4FA0BBB08D4AF23AE22AD21AC2039
:01054C00228C
:10047700E4F520E47B0AFAF9F8AF0BAE0AAD09AC54
:10048700081204C8AF0374162520F8A607741625AA
:1004970020F8E6FBC3E50B9BFFE50A9400FEE509A0
:1004A7009400FDE5089400FCE47B0AFAF9F81204CD
:1004B700C88F0B8E0A8D098C080520E520B408B378
:0104C7002212
:10054D00D2A4D2A3D2A275803FE4F51E7416251E47
:0E055D00F8E4F6051EE51EB408F2E4F51E22D1
:10028C00020003E493A3F8E493A34003F68001F285
:10029C0008DFF48029E493A3F85407240CC8C33373
:1002AC00C4540F4420C8834004F456800146F6DF42
:1002BC00E4800B010204081020408090056BE47E62
:1002CC00019360BCA3FF543F30E509541FFEE49337
:1002DC00A360010ECF54C025E060A840B8E493A3FE
:1002EC00FAE493A3F8E493A3C8C582C8CAC583CA29
:1002FC00F0A3C8C582C8CAC583CADFE9DEE780BEE1
:01057D00007D
:10016300E88FF0A4CC8BF0A42CFCE98EF0A42CFC3B
:100173008AF0EDA42CFCEA8EF0A4CDA8F08BF0A4B9
:100183002DCC3825F0FDE98FF0A42CCD35F0FCEB18
:100193008EF0A4FEA9F0EB8FF0A4CFC5F02ECD39DD
:0F01A300FEE43CFCEAA42DCE35F0FDE43CFC224A
:1004C800C2D5E830E70FB2D5E4C39BFBE49AFAE45F
:1004D80099F9E498F8EC30E717B2D51204FE120146
:1004E800EEE4C39BFBE49AFAE499F9E498F88003F4
:1004F8001201EE30D50DE4C39FFFE49EFEE49DFD9E
:04050800E49CFC2251
:1001B20075F008758200EF2FFFEE33FECD33CDCC04
:1001C20033CCC58233C5829BED9AEC99E582984087
:1001D2000CF582EE9BFEED9AFDEC99FC0FD5F0D664
:1001E200E4CEFBE4CDFAE4CCF9A88222B800C1B98E
:1001F2000059BA002DEC8BF084CFCECDFCE5F0CBCC
:10020200F97818EF2FFFEE33FEED33FDEC33FCEB04
:1002120033FB10D703994004EB99FB0FD8E5E4F9BF
:10022200FA227818EF2FFFEE33FEED33FDEC33FCAC
:10023200C933C910D7059BE99A4007EC9BFCE99AA0
:10024200F90FD8E0E4C9FAE4CCFB2275F010EF2FE5
:10025200FFEE33FEED33FDCC33CCC833C810D707E5
:100262009BEC9AE899400AED9BFDEC9AFCE899F820
:0E0272000FD5F0DAE4CDFBE4CCFAE4C8F922B3
:00000001FF
