:0300000002039E5A
:0C039E00787FE4F6D8FD7581460203E587
:0A065D003F065B4F666D7D077F6F5F
:10063200041600000000040800000000043C000052
:0B0642000000010D00013B00013A0028
:1000030012060975900FE590640F70030201AA129E
:10001300051D12042AE50D24F6502224BD700302A7
:1000230000AE24EC606524FE605F1470030200BE22
:0D0033001470030200D224F860610201AADB
:10004000053BE53BB4010CE4850D1DF51CF51BF5E6
:100050001A8026853B40E540D39400401CE54025AE
:10006000E025E02416F81201FFE54025E025E02414
:100070001AF8120218154080DDE4850D1DF51CF5F7
:0C0080001BF51A750D1012030B0201AAEB
:10008C00803E1205768F0B8E0A8D098C08750C61DB
:10009C00802E1205768F0B8E0A8D098C08750C6DCF
:1000AC00801E1205768F0B8E0A8D098C08750C4DEF
:1000BC00800E1205768F0B8E0A8D098C08750C64D8
:1000CC001206090201AAAF0BAE0AAD09AC08EC4D41
:1000DC004E4F7004000201AAE53A700B1205768FA0
:1000EC00198E188D178C16053AE50C24B360412433
:1000FC00E9605224F7601E240C7065E50B2519F598
:10010C000BE50A3518F50AE5093517F509E5083543
:10011C0016F508804BC3E50B9519F50BE50A9518F8
:10012C00F50AE5099517F509E5089516F5088030E7
:10013C00AF0BAE0AAD09AC08AB19AA18A917A816D3
:10014C001201B08013AF0BAE0AAD09AC08AB19AA03
:10015C0018A917A8161205C58F0B8E0A8D098C08C5
:10016C001204B385150B85140A85130985120875BD
:10017C003B07753B07E53B25E025E0241AF8120107
:10018C00FFEC4D4E4F7004153B80EA053BAF15AEAE
:10019C0014AD13AC12EC4D4E4F7003753B011203B2
:0401AC000B0200063C
:080667007F6C7E91DEFEDFFCDA
:01066F002268
:0E064E0000007F017ED87D23DDFEDEFCDFFA9A
:01065C00227B
:10051D00E590640F6003120667E590640F6047E491
:10052D00F50DAF90EF24F5601024FE6011146013EB
:10053D0024077012750D01800D750D028008750D63
:10054D00038003750D047590F0AF90EF249060104B
:10055D0024C0600824E0700E7404800674088002C4
:09056D00740C250DF50D02064E7B
:10042A00E50D14B4100040030204B290044375F0C1
:10043A0003A4C58325F0C5837302047302047702FB
:10044A00047B02047F02048302048702048B0204F1
:10045A008F02049302049702049B02049F0204A3DE
:10046A000204A70204AB0204AF750D6322750D01E5
:10047A0022750D0422750D0722E4F50D22750D0271
:10048A0022750D0522750D0822750D6522750D035D
:10049A0022750D0622750D0922750D6122750D6DE5
:0904AA0022750D4D22750D64222E
:10030B00E4FBFAC3EB953B7480F86A984003020355
:10031B009DEA7053EBB40800504D90032CF828283D
:10032B007302034402034802034C020350020354BA
:10033B0002035C02036402036CD2A4800ED2A4807D
:10034B0012D2A48016D2A4801AC2A4D2A3D2A280A5
:10035B0016C2A4D2A3C2A2800EC2A4C2A3D2A280F0
:10036B0006C2A4C2A3C2A2EB25E025E0241AF81210
:10037B0001FFEF90065D93F5807F0A7E00EF1FACC7
:10038B000670011E4C70F6E4F5800BBB00010A02EF
:02039B00030E4F
:01039D00223D
:10057600E4F541754201F546F545F544F543E54197
:1005860025E025E0241AF812020BAF42E4FCFDFE3A
:100596001201B0E5462FF546E5453EF545E5443DF5
:1005A600F544E5433CF543E54275F00AA4F54205FA
:0E05B60041E541B408C8AF46AE45AD44AC4384
:0105C4002214
:1004B300850B15850A14850913850812E4F541E4B3
:1004C3007B0AFAF9F8AF0BAE0AAD09AC081205C501
:1004D300AC00AD01AE02AF03E54125E025E0241AEF
:1004E300F8120218E54125E025E0241AF812020B60
:1004F300C3E50B9BFFE50A9AFEE50999FDE508981C
:10050300FCE47B0AFAF9F81205C58F0B8E0A8D09F4
:090513008C080541E541B408A67D
:01051C0022BC
:10060900D2A4D2A3D2A275803FE4F53BE53B25E015
:1006190025E0241AF812022400000000053BE53BFE
:09062900B408E9E4F53BF53A22BE
:1003AA00020003E493A3F8E493A34003F68001F266
:1003BA0008DFF48029E493A3F85407240CC8C33354
:1003CA00C4540F4420C8834004F456800146F6DF23
:1003DA00E4800B0102040810204080900632E47E7B
:1003EA00019360BCA3FF543F30E509541FFEE49318
:1003FA00A360010ECF54C025E060A840B8E493A3DF
:10040A00FAE493A3F8E493A3C8C582C8CAC583CA09
:10041A00F0A3C8C582C8CAC583CADFE9DEE780BEC1
:01064D0000AC
:1001B000E88FF0A4CC8BF0A42CFCE98EF0A42CFCEE
:1001C0008AF0EDA42CFCEA8EF0A4CDA8F08BF0A46C
:1001D0002DCC3825F0FDE98FF0A42CCD35F0FCEBCB
:1001E0008EF0A4FEA9F0EB8FF0A4CFC5F02ECD3990
:0F01F000FEE43CFCEAA42DCE35F0FDE43CFC22FD
:1005C500C2D5E830E70FB2D5E4C39BFBE49AFAE461
:1005D50099F9E498F8EC30E717B2D51205FB120249
:1005E50079E4C39BFBE49AFAE499F9E498F880036B
:1005F50012027930D50DE4C39FFFE49EFEE49DFD14
:04060500E49CFC2253
:0C01FF00E6FC08E6FD08E6FE08E6FF222C
:0D020B00E6FB08E6F908E6FA08E6CBF82263
:0C021800ECF608EDF608EEF608EFF62212
:10022400D083D082E493F608740193F608740293A1
:09023400F608740393F6740473D8
:10023D0075F008758200EF2FFFEE33FECD33CDCC78
:10024D0033CCC58233C5829BED9AEC99E5829840FB
:10025D000CF582EE9BFEED9AFDEC99FC0FD5F0D6D8
:10026D00E4CEFBE4CDFAE4CCF9A88222B800C1B902
:10027D000059BA002DEC8BF084CFCECDFCE5F0CB40
:10028D00F97818EF2FFFEE33FEED33FDEC33FCEB79
:10029D0033FB10D703994004EB99FB0FD8E5E4F934
:1002AD00FA227818EF2FFFEE33FEED33FDEC33FC21
:1002BD00C933C910D7059BE99A4007EC9BFCE99A15
:1002CD00F90FD8E0E4C9FAE4CCFB2275F010EF2F5A
:1002DD00FFEE33FEED33FDCC33CCC833C810D7075A
:1002ED009BEC9AE899400AED9BFDEC9AFCE899F895
:0E02FD000FD5F0DAE4CDFBE4CCFAE4C8F92228
:00000001FF
